:03000000020DA24C
:0C0DA200787FE4F6D8FD758119020ACCB8
:100D520050617373776F72642D00436F72726563B3
:100D62007400496E636F727265637400313233349A
:010D72000080
:060D0400D2B17F017E0068
:100D0A00E4FDFCC3ED9FEE6480F8EC648098501417
:100D1A00E4FBFA0BBB00010AEBF44A70F60DBD00C6
:040D2A00010C80DF59
:010D2E0022A2
:100D730012090F7F2A120DAE7FC87E00120D0A7F63
:010D83000669
:0A0D84008FA0C2B0120D04C2B1220C
:0A0DAE008FA0D2B0120D04C2B122D2
:100D2F008B178A188919AB17AA18A9191208F6FF79
:100D3F006010120DAE74012519F519E43518F51868
:030D4F0080E4221B
:100D8E007F01120D847F38120D847F0E120D847F29
:040D9E0080020D843E
:100ACC0078087C007D007BFF7A0D796E7E007F05B7
:100ADC001208D0E4F512F513F51475150075160D02
:100AEC00120D8E7BFF7A0D7952120D2FE4F511C386
:100AFC00E5139404E512648094804003020CAF75F6
:100B0C0090FEAF90EF64EE701BAB14AA15A916857E
:100B1C0013828512837437120D730513E513704617
:100B2C0005128042AF90EF64DE701BAB14AA15A9BE
:100B3C00168513828512837438120D730513E51311
:100B4C00702405128020AF90EF64BE7019AB14AA0C
:100B5C0015A9168513828512837439120D7305132A
:100B6C00E513700205127590FDAF90EF64ED701BEC
:100B7C00AB14AA15A9168513828512837434120D31
:100B8C00730513E513704605128042AF90EF64DDD8
:100B9C00701BAB14AA15A9168513828512837435A4
:100BAC00120D730513E513702405128020AF90EF1E
:100BBC0064BD7019AB14AA15A9168513828512830E
:100BCC007436120D730513E513700205127590FB44
:100BDC00AF90EF64EB701BAB14AA15A916851382AA
:100BEC008512837431120D730513E51370460512CB
:100BFC008042AF90EF64DB701BAB14AA15A916856D
:100C0C0013828512837432120D730513E51370244D
:100C1C0005128020AF90EF64BB7019AB14AA15A914
:100C2C00168513828512837433120D730513E51325
:100C3C00700205127590F7AF90EF64E7701CAB145F
:100C4C00AA15A916851382851283742A120D7305B1
:100C5C0013E51370250512020AFBAF90EF64D770F1
:100C6C001CAB14AA15A91685138285128374301235
:100C7C000D730513E51370020512020AFBAF90EF1A
:100C8C0064B76003020AFBAB14AA15A9168513827C
:100C9C008512837423120D730513E513700205126C
:100CAC00020AFBE513640445126003020AFB780890
:100CBC007C00FDFB7A00790D120AAFEF3395E04F03
:100CCC00701B7FC0120D847BFF7A0D795C120D2F87
:100CDC00D2B2C2B37F647E00120D0A80C67FC012EE
:100CEC000D847BFF7A0D7964120D2FC2B2C2B37FD3
:080CFC00647E00120D0A80ABBA
:10080000E709F608DFFA8046E709F208DFFA803EDA
:1008100088828C83E709F0A3DFFA8032E309F608C7
:10082000DFFA8078E309F208DFFA807088828C832F
:10083000E309F0A3DFFA806489828A83E0A3F608E3
:10084000DFFA805889828A83E0A3F208DFFA804CBD
:1008500080D280FA80C680D4806980F28033801094
:1008600080A680EA809A80A880DA80E280CA8033FD
:1008700089828A83ECFAE493A3C8C582C8CCC58375
:10088000CCF0A3C8C582C8CCC583CCDFE9DEE78045
:100890000D89828A83E493A3F608DFF9ECFAA9F0C4
:1008A000EDFB2289828A83ECFAE0A3C8C582C8CC1A
:1008B000C583CCF0A3C8C582C8CCC583CCDFEADE33
:1008C000E880DB89828A83E493A3F208DFF980CC95
:1008D00088F0EF60010E4E60C388F0ED2402B4048E
:1008E0000050B9F582EB2402B4040050AF23234535
:0608F00082239008507302
:1008F600BB010689828A83E0225002E722BBFE0200
:09090600E32289828A83E4932232
:10090F00F8BB010DE58229F582E5833AF583E8F01E
:10091F00225006E92582C8F622BBFE05E92582C8CA
:02092F00F222B2
:10093100E3F5F009E208B5F06D606B80F3E3F5F0E3
:1009410009E608B5F060605E80F387F009E608B556
:10095100F054605280F487F009E208B5F04860462F
:1009610080F488828C8387F009E0A3B5F038603683
:1009710080F488828C8387F009E493A3B5F0276023
:100981002580F388828C83E3F5F009E0A3B5F016A6
:10099100601480F388828C83E3F5F009E493A3B5B6
:1009A100F004600280F2020A5C808580E7808E801C
:1009B100D2803C8015806C807E809B80B5808B804E
:1009C100A1804F8070803A020A6889828A83ECFA9A
:1009D100E493F5F0A3C8C582C8CCC583CCE493A346
:1009E100C8C582C8CCC583CCB5F070606E80E18982
:1009F100828A83E493F5F0A3E208B5F05E605C803F
:100A0100F289828A83E0F5F0A3E608B5F04D604BE8
:100A110080F389828A83E0F5F0A3E208B5F03C60B7
:100A21003A80F389828A83E493F5F0A3E608B5F06E
:100A31002A602880F2805389828A83ECFAE493F554
:100A4100F0A3C8C582C8CCC583CCE0A3C8C582C801
:100A5100CCC583CCB5F004600280E27FFFB5F00223
:100A61000F2240027F012289828A83ECFAE0F5F0AD
:100A7100A3C8C582C8CCC583CCE0A3C8C582C8CCF5
:100A8100C583CCB5F0D560D380E389828A83ECFA43
:100A9100E0F5F0A3C8C582C8CCC583CCE493A3C854
:100AA100C582C8CCC583CCB5F0B160AF80E288F017
:100AB100ED2402B4040050A3F582EB2402B4040037
:0B0AC100509923234582239009AA735B
:00000001FF
